{
  "contractName": "GBTokenAndCrowdsale",
  "abi": [
    {
      "inputs": [
        {
          "internalType": "uint256",
          "name": "initialSupply",
          "type": "uint256"
        }
      ],
      "stateMutability": "nonpayable",
      "type": "constructor"
    },
    {
      "anonymous": false,
      "inputs": [
        {
          "indexed": true,
          "internalType": "address",
          "name": "from",
          "type": "address"
        },
        {
          "indexed": true,
          "internalType": "address",
          "name": "to",
          "type": "address"
        },
        {
          "indexed": false,
          "internalType": "uint256",
          "name": "fundsReceived",
          "type": "uint256"
        },
        {
          "indexed": false,
          "internalType": "uint256",
          "name": "numberOfTokens",
          "type": "uint256"
        }
      ],
      "name": "TokenBuy",
      "type": "event"
    },
    {
      "anonymous": false,
      "inputs": [
        {
          "indexed": true,
          "internalType": "address",
          "name": "from",
          "type": "address"
        },
        {
          "indexed": true,
          "internalType": "address",
          "name": "to",
          "type": "address"
        },
        {
          "indexed": false,
          "internalType": "uint256",
          "name": "value",
          "type": "uint256"
        }
      ],
      "name": "TransferGB",
      "type": "event"
    },
    {
      "inputs": [],
      "name": "checkcheck",
      "outputs": [
        {
          "internalType": "uint256",
          "name": "",
          "type": "uint256"
        }
      ],
      "stateMutability": "view",
      "type": "function",
      "constant": true
    },
    {
      "inputs": [
        {
          "internalType": "address",
          "name": "receiver",
          "type": "address"
        },
        {
          "internalType": "uint256",
          "name": "amount",
          "type": "uint256"
        }
      ],
      "name": "sendTokens",
      "outputs": [],
      "stateMutability": "nonpayable",
      "type": "function"
    },
    {
      "inputs": [
        {
          "internalType": "address",
          "name": "addr",
          "type": "address"
        }
      ],
      "name": "getBalance",
      "outputs": [
        {
          "internalType": "uint256",
          "name": "",
          "type": "uint256"
        }
      ],
      "stateMutability": "view",
      "type": "function",
      "constant": true
    },
    {
      "inputs": [],
      "name": "buyTokensWithEther",
      "outputs": [],
      "stateMutability": "payable",
      "type": "function",
      "payable": true
    }
  ],
  "bytecode": "0x6080604052670de0b6b3a764000060045534801561001c57600080fd5b50604051610934380380610934833981810160405281019061003e919061016d565b806000803373ffffffffffffffffffffffffffffffffffffffff1673ffffffffffffffffffffffffffffffffffffffff168152602001908152602001600020819055508060058190555033600160006101000a81548173ffffffffffffffffffffffffffffffffffffffff021916908373ffffffffffffffffffffffffffffffffffffffff160217905550600160009054906101000a900473ffffffffffffffffffffffffffffffffffffffff16600260006101000a81548173ffffffffffffffffffffffffffffffffffffffff021916908373ffffffffffffffffffffffffffffffffffffffff1602179055505061019a565b600080fd5b6000819050919050565b61014a81610137565b811461015557600080fd5b50565b60008151905061016781610141565b92915050565b60006020828403121561018357610182610132565b5b600061019184828501610158565b91505092915050565b61078b806101a96000396000f3fe60806040526004361061003f5760003560e01c806305ab421d146100445780635508fd011461006d578063cd38ba9514610098578063f8b2cb4f146100a2575b600080fd5b34801561005057600080fd5b5061006b60048036038101906100669190610522565b6100df565b005b34801561007957600080fd5b50610082610238565b60405161008f9190610571565b60405180910390f35b6100a0610242565b005b3480156100ae57600080fd5b506100c960048036038101906100c4919061058c565b610441565b6040516100d69190610571565b60405180910390f35b806000803373ffffffffffffffffffffffffffffffffffffffff1673ffffffffffffffffffffffffffffffffffffffff168152602001908152602001600020541061023457806000803373ffffffffffffffffffffffffffffffffffffffff1673ffffffffffffffffffffffffffffffffffffffff168152602001908152602001600020600082825461017291906105e8565b92505081905550806000808473ffffffffffffffffffffffffffffffffffffffff1673ffffffffffffffffffffffffffffffffffffffff16815260200190815260200160002060008282546101c7919061061c565b925050819055508173ffffffffffffffffffffffffffffffffffffffff163373ffffffffffffffffffffffffffffffffffffffff167fdcc0790ea4d5ede28043b8cace5a24a55841fcad2864794570c855cb877d66758360405161022b9190610571565b60405180910390a35b5050565b6000600554905090565b6000600454670de0b6b3a76400003461025b9190610672565b61026591906106fb565b905080600080600160009054906101000a900473ffffffffffffffffffffffffffffffffffffffff1673ffffffffffffffffffffffffffffffffffffffff1673ffffffffffffffffffffffffffffffffffffffff16815260200190815260200160002060008282546102d791906105e8565b92505081905550806000803373ffffffffffffffffffffffffffffffffffffffff1673ffffffffffffffffffffffffffffffffffffffff168152602001908152602001600020600082825461032c919061061c565b925050819055503460036000828254610345919061061c565b92505081905550600260009054906101000a900473ffffffffffffffffffffffffffffffffffffffff1673ffffffffffffffffffffffffffffffffffffffff166108fc349081150290604051600060405180830381858888f193505050501580156103b4573d6000803e3d6000fd5b503373ffffffffffffffffffffffffffffffffffffffff16600260009054906101000a900473ffffffffffffffffffffffffffffffffffffffff1673ffffffffffffffffffffffffffffffffffffffff167f662fffd2e2fb751e0e978097e1169c484196033934fe5ebbb20e66baf883fe87348460405161043692919061072c565b60405180910390a350565b60008060008373ffffffffffffffffffffffffffffffffffffffff1673ffffffffffffffffffffffffffffffffffffffff168152602001908152602001600020549050919050565b600080fd5b600073ffffffffffffffffffffffffffffffffffffffff82169050919050565b60006104b98261048e565b9050919050565b6104c9816104ae565b81146104d457600080fd5b50565b6000813590506104e6816104c0565b92915050565b6000819050919050565b6104ff816104ec565b811461050a57600080fd5b50565b60008135905061051c816104f6565b92915050565b6000806040838503121561053957610538610489565b5b6000610547858286016104d7565b92505060206105588582860161050d565b9150509250929050565b61056b816104ec565b82525050565b60006020820190506105866000830184610562565b92915050565b6000602082840312156105a2576105a1610489565b5b60006105b0848285016104d7565b91505092915050565b7f4e487b7100000000000000000000000000000000000000000000000000000000600052601160045260246000fd5b60006105f3826104ec565b91506105fe836104ec565b925082821015610611576106106105b9565b5b828203905092915050565b6000610627826104ec565b9150610632836104ec565b9250827fffffffffffffffffffffffffffffffffffffffffffffffffffffffffffffffff03821115610667576106666105b9565b5b828201905092915050565b600061067d826104ec565b9150610688836104ec565b9250817fffffffffffffffffffffffffffffffffffffffffffffffffffffffffffffffff04831182151516156106c1576106c06105b9565b5b828202905092915050565b7f4e487b7100000000000000000000000000000000000000000000000000000000600052601260045260246000fd5b6000610706826104ec565b9150610711836104ec565b925082610721576107206106cc565b5b828204905092915050565b60006040820190506107416000830185610562565b61074e6020830184610562565b939250505056fea2646970667358221220cfc5b6380b34ff900be646f34fdfbfd160ab191f20b27bb001f1dd707a0048d764736f6c634300080f0033",
  "immutableReferences": {},
  "source": "// SPDX-License-Identifier: MIT\npragma solidity ^0.8.4;\nimport \"./Token.sol\";\ncontract GBTokenAndCrowdsale {\n\n    // GBToken public tokenContract;\n\n    mapping (address => uint) balances;\n    // mapping(address => uint256)  _balances;\n    \n    // Address of the wallet holding the token funds when they are first created /\n    address payable tokenFundsAddress;\n    \n    // Approved address of the account that will receive the raised Ether funds /\n    address payable beneficiary;\n    \n    // Keep track of ETH funds raised /\n    uint amountRaised;\n\n    // Price of a GBT token, in 'wei' denomination /\n    uint  private TOKEN_PRICE_IN_WEI = 1*10**18;\n    uint check ;\n    // This generates a public event on the blockchain that will notify listening clients /\n    event TransferGB(address indexed from, address indexed to, uint value);\n    event TokenBuy(address indexed from, address indexed to ,uint256 fundsReceived, uint numberOfTokens);\n    constructor(uint initialSupply){\n     \n        balances[msg.sender] = initialSupply;\n        check = initialSupply;\n        // store a reference to this contract creator's address, \n        // so we can debit tokens from this address each time we distribute tokens to\n        // a crowdsale participant\n        tokenFundsAddress = payable(msg.sender);\n        \n        // the beneficiary for the crowd sale (the one who will receive the raised ETH)\n        // should be the same as the account holding the tokens to be given away\n        beneficiary = tokenFundsAddress;\n    }\n    function checkcheck()public view returns(uint){\n        return check;\n    }\n    // Send tokens from the message sender's account to the specified account /\n    function sendTokens(address receiver, uint amount) public {\n        // if sender does not have enough money\n        if (balances[msg.sender] < amount) return;\n        \n        // take funds out of sender's account\n        balances[msg.sender] -= amount;\n        \n        // add those funds to receipient's account\n        balances[receiver] += amount;\n\n        emit TransferGB(msg.sender, receiver, amount);\n\n    }\n\n      \n    function getBalance(address addr) public view returns (uint) {\n        return balances[addr];\n    }\n\n    function buyTokensWithEther() public payable{\n        uint numTokens = msg.value*10**18 / TOKEN_PRICE_IN_WEI;\n        balances[tokenFundsAddress] -= numTokens;\n        balances[msg.sender] += numTokens;\n        amountRaised += msg.value;\n        beneficiary.transfer(msg.value);\n        emit TokenBuy(beneficiary ,msg.sender, msg.value, numTokens);\n        \n        }\n}\n\n       ",
  "sourcePath": "/home/abhaypratap/Downloads/ICO-main/contracts/ICO.sol",
  "compiler": {
    "name": "solc",
    "version": "0.8.15+commit.e14f2714.Emscripten.clang"
  },
  "schemaVersion": "3.4.7",
  "updatedAt": "2022-07-06T11:15:47.066Z",
  "networkType": "ethereum",
  "devdoc": {
    "kind": "dev",
    "methods": {},
    "version": 1
  },
  "userdoc": {
    "kind": "user",
    "methods": {},
    "version": 1
  }
}