{
  "contractName": "ICO",
  "abi": [
    {
      "inputs": [
        {
          "internalType": "uint256",
          "name": "initialSupply",
          "type": "uint256"
        }
      ],
      "stateMutability": "nonpayable",
      "type": "constructor"
    },
    {
      "anonymous": false,
      "inputs": [
        {
          "indexed": true,
          "internalType": "address",
          "name": "sender",
          "type": "address"
        },
        {
          "indexed": true,
          "internalType": "address",
          "name": "receiver",
          "type": "address"
        },
        {
          "indexed": false,
          "internalType": "uint256",
          "name": "fundTransfered",
          "type": "uint256"
        },
        {
          "indexed": false,
          "internalType": "uint256",
          "name": "tokensIssued",
          "type": "uint256"
        }
      ],
      "name": "TokenBuy",
      "type": "event"
    },
    {
      "inputs": [
        {
          "internalType": "address",
          "name": "addr",
          "type": "address"
        }
      ],
      "name": "getBalance",
      "outputs": [
        {
          "internalType": "uint256",
          "name": "",
          "type": "uint256"
        }
      ],
      "stateMutability": "view",
      "type": "function",
      "constant": true
    },
    {
      "inputs": [
        {
          "internalType": "uint256",
          "name": "numTokens",
          "type": "uint256"
        }
      ],
      "name": "transfer",
      "outputs": [],
      "stateMutability": "payable",
      "type": "function",
      "payable": true
    },
    {
      "inputs": [
        {
          "internalType": "uint256",
          "name": "numTokens",
          "type": "uint256"
        }
      ],
      "name": "calculatedToken",
      "outputs": [
        {
          "internalType": "uint256",
          "name": "_tokenAssign",
          "type": "uint256"
        }
      ],
      "stateMutability": "view",
      "type": "function",
      "constant": true
    },
    {
      "inputs": [],
      "name": "buyTokensWithEther",
      "outputs": [],
      "stateMutability": "payable",
      "type": "function",
      "payable": true
    }
  ],
  "bytecode": "0x6080604052670de0b6b3a76400006004553480156200001d57600080fd5b506040516200103238038062001032833981810160405281019062000043919062000133565b6004548162000053919062000194565b6000803373ffffffffffffffffffffffffffffffffffffffff1673ffffffffffffffffffffffffffffffffffffffff1681526020019081526020016000208190555060045481620000a5919062000194565b60038190555033600160006101000a81548173ffffffffffffffffffffffffffffffffffffffff021916908373ffffffffffffffffffffffffffffffffffffffff16021790555050620001f5565b600080fd5b6000819050919050565b6200010d81620000f8565b81146200011957600080fd5b50565b6000815190506200012d8162000102565b92915050565b6000602082840312156200014c576200014b620000f3565b5b60006200015c848285016200011c565b91505092915050565b7f4e487b7100000000000000000000000000000000000000000000000000000000600052601160045260246000fd5b6000620001a182620000f8565b9150620001ae83620000f8565b9250817fffffffffffffffffffffffffffffffffffffffffffffffffffffffffffffffff0483118215151615620001ea57620001e962000165565b5b828202905092915050565b610e2d80620002056000396000f3fe60806040526004361061003f5760003560e01c806312514bba14610044578063cd38ba9514610060578063cdd48f241461006a578063f8b2cb4f146100a7575b600080fd5b61005e60048036038101906100599190610ad6565b6100e4565b005b6100686102d7565b005b34801561007657600080fd5b50610091600480360381019061008c9190610ad6565b6107e2565b60405161009e9190610b12565b60405180910390f35b3480156100b357600080fd5b506100ce60048036038101906100c99190610b8b565b610a53565b6040516100db9190610b12565b60405180910390f35b600160009054906101000a900473ffffffffffffffffffffffffffffffffffffffff1673ffffffffffffffffffffffffffffffffffffffff166108fc349081150290604051600060405180830381858888f1935050505015801561014c573d6000803e3d6000fd5b5080600080600160009054906101000a900473ffffffffffffffffffffffffffffffffffffffff1673ffffffffffffffffffffffffffffffffffffffff1673ffffffffffffffffffffffffffffffffffffffff16815260200190815260200160002060008282546101bd9190610be7565b92505081905550806000803373ffffffffffffffffffffffffffffffffffffffff1673ffffffffffffffffffffffffffffffffffffffff16815260200190815260200160002060008282546102129190610c1b565b92505081905550346002600082825461022b9190610c1b565b925050819055506000670de0b6b3a7640000826102489190610ca0565b9050600160009054906101000a900473ffffffffffffffffffffffffffffffffffffffff1673ffffffffffffffffffffffffffffffffffffffff163373ffffffffffffffffffffffffffffffffffffffff167f662fffd2e2fb751e0e978097e1169c484196033934fe5ebbb20e66baf883fe8734846040516102cb929190610cd1565b60405180910390a35050565b6000349050600a606460196003546102ef9190610cfa565b6102f99190610ca0565b6103039190610cfa565b341115610345576040517f08c379a000000000000000000000000000000000000000000000000000000000815260040161033c90610dd7565b60405180910390fd5b6064604b6003546103569190610cfa565b6103609190610ca0565b600080600160009054906101000a900473ffffffffffffffffffffffffffffffffffffffff1673ffffffffffffffffffffffffffffffffffffffff1673ffffffffffffffffffffffffffffffffffffffff1681526020019081526020016000205411801561044757506064806003546103d99190610cfa565b6103e39190610ca0565b600080600160009054906101000a900473ffffffffffffffffffffffffffffffffffffffff1673ffffffffffffffffffffffffffffffffffffffff1673ffffffffffffffffffffffffffffffffffffffff1681526020019081526020016000205411155b156104625761045d610458826107e2565b6100e4565b6107df565b606460326003546104739190610cfa565b61047d9190610ca0565b600080600160009054906101000a900473ffffffffffffffffffffffffffffffffffffffff1673ffffffffffffffffffffffffffffffffffffffff1673ffffffffffffffffffffffffffffffffffffffff1681526020019081526020016000205411801561056557506064604b6003546104f79190610cfa565b6105019190610ca0565b600080600160009054906101000a900473ffffffffffffffffffffffffffffffffffffffff1673ffffffffffffffffffffffffffffffffffffffff1673ffffffffffffffffffffffffffffffffffffffff1681526020019081526020016000205411155b1561058c576105876002610578836107e2565b6105829190610ca0565b6100e4565b6107de565b6064601960035461059d9190610cfa565b6105a79190610ca0565b600080600160009054906101000a900473ffffffffffffffffffffffffffffffffffffffff1673ffffffffffffffffffffffffffffffffffffffff1673ffffffffffffffffffffffffffffffffffffffff1681526020019081526020016000205411801561068f5750606460326003546106219190610cfa565b61062b9190610ca0565b600080600160009054906101000a900473ffffffffffffffffffffffffffffffffffffffff1673ffffffffffffffffffffffffffffffffffffffff1673ffffffffffffffffffffffffffffffffffffffff1681526020019081526020016000205411155b156106b6576106b160036106a2836107e2565b6106ac9190610ca0565b6100e4565b6107dd565b606460016003546106c79190610cfa565b6106d19190610ca0565b600080600160009054906101000a900473ffffffffffffffffffffffffffffffffffffffff1673ffffffffffffffffffffffffffffffffffffffff1673ffffffffffffffffffffffffffffffffffffffff168152602001908152602001600020541180156107b957506064601960035461074b9190610cfa565b6107559190610ca0565b600080600160009054906101000a900473ffffffffffffffffffffffffffffffffffffffff1673ffffffffffffffffffffffffffffffffffffffff1673ffffffffffffffffffffffffffffffffffffffff1681526020019081526020016000205411155b156107dc576107db60046107cc836107e2565b6107d69190610ca0565b6100e4565b5b5b5b5b50565b60008060009050600080600080600080600080606460196003546108069190610cfa565b6108109190610ca0565b8b1115610a3357606460196003546108289190610cfa565b6108329190610ca0565b8b61083d9190610be7565b9850606460196003546108509190610cfa565b61085a9190610ca0565b945084816108689190610c1b565b90506064603260035461087b9190610cfa565b6108859190610ca0565b8911156108e4576064603260035461089d9190610cfa565b6108a79190610ca0565b896108b29190610be7565b9750606460196003546108c59190610cfa565b6108cf9190610ca0565b935083816108dd9190610c1b565b9050610902565b6002896108f19190610ca0565b935083816108ff9190610c1b565b90505b6064604b6003546109139190610cfa565b61091d9190610ca0565b88111561097c576064604b6003546109359190610cfa565b61093f9190610ca0565b8861094a9190610be7565b96506064601960035461095d9190610cfa565b6109679190610ca0565b925082816109759190610c1b565b905061099a565b6003886109899190610ca0565b925082816109979190610c1b565b90505b6064806003546109aa9190610cfa565b6109b49190610ca0565b8710610a10576064806003546109ca9190610cfa565b6109d49190610ca0565b876109df9190610be7565b95506064806003546109f19190610cfa565b6109fb9190610ca0565b91508281610a099190610c1b565b9050610a2e565b600487610a1d9190610ca0565b91508181610a2b9190610c1b565b90505b610a42565b8a81610a3f9190610c1b565b90505b809950505050505050505050919050565b60008060008373ffffffffffffffffffffffffffffffffffffffff1673ffffffffffffffffffffffffffffffffffffffff168152602001908152602001600020549050919050565b600080fd5b6000819050919050565b610ab381610aa0565b8114610abe57600080fd5b50565b600081359050610ad081610aaa565b92915050565b600060208284031215610aec57610aeb610a9b565b5b6000610afa84828501610ac1565b91505092915050565b610b0c81610aa0565b82525050565b6000602082019050610b276000830184610b03565b92915050565b600073ffffffffffffffffffffffffffffffffffffffff82169050919050565b6000610b5882610b2d565b9050919050565b610b6881610b4d565b8114610b7357600080fd5b50565b600081359050610b8581610b5f565b92915050565b600060208284031215610ba157610ba0610a9b565b5b6000610baf84828501610b76565b91505092915050565b7f4e487b7100000000000000000000000000000000000000000000000000000000600052601160045260246000fd5b6000610bf282610aa0565b9150610bfd83610aa0565b925082821015610c1057610c0f610bb8565b5b828203905092915050565b6000610c2682610aa0565b9150610c3183610aa0565b9250827fffffffffffffffffffffffffffffffffffffffffffffffffffffffffffffffff03821115610c6657610c65610bb8565b5b828201905092915050565b7f4e487b7100000000000000000000000000000000000000000000000000000000600052601260045260246000fd5b6000610cab82610aa0565b9150610cb683610aa0565b925082610cc657610cc5610c71565b5b828204905092915050565b6000604082019050610ce66000830185610b03565b610cf36020830184610b03565b9392505050565b6000610d0582610aa0565b9150610d1083610aa0565b9250817fffffffffffffffffffffffffffffffffffffffffffffffffffffffffffffffff0483118215151615610d4957610d48610bb8565b5b828202905092915050565b600082825260208201905092915050565b7f54752061616d69722068616920626861692068756d7365206e6120686f70796560008201527f6761000000000000000000000000000000000000000000000000000000000000602082015250565b6000610dc1602283610d54565b9150610dcc82610d65565b604082019050919050565b60006020820190508181036000830152610df081610db4565b905091905056fea2646970667358221220ccfbb715f1fa0637c2ada3489c424087806d8867fae17663f26ade613c9f481264736f6c634300080f0033",
  "immutableReferences": {},
  "source": "// SPDX-License-Identifier: MIT\npragma solidity ^0.8.4;\n\ncontract ICO {\n    mapping(address => uint256) balances; // mapping(address => uint256)  _balances;\n    address payable tokenFundsAddress; // Address of the wallet holding the token funds when they are first created\n    uint256 amountRaised; // Keep track of ETH funds raised\n    uint256 check;\n    // This generates a public event on the blockchain that will notify listening clients\n    event TokenBuy(\n        address indexed sender,\n        address indexed receiver,\n        uint  fundTransfered,\n       uint  tokensIssued\n    );\n    uint gbtoken = 1*1 ether;\n    constructor(uint256 initialSupply) {\n        balances[msg.sender] = initialSupply * gbtoken;\n        check = initialSupply * gbtoken;\n        tokenFundsAddress = payable(msg.sender);\n    }\n\n    function getBalance(address addr) public view returns (uint256) {\n        return balances[addr];\n    }\n\n    function transfer(uint256 numTokens) public payable {\n        tokenFundsAddress.transfer(msg.value);\n        balances[tokenFundsAddress] -= (numTokens);\n        balances[msg.sender] += (numTokens);\n        amountRaised += msg.value;\n        \n         uint y1 = (numTokens/(10**18));\n     \n        emit TokenBuy(msg.sender, tokenFundsAddress, msg.value, y1);\n    }\n\n    function calculatedToken(uint256 numTokens)\n        public\n        view\n        returns (uint256 _tokenAssign)\n    {\n        uint256 numTokens1 = 0;\n        uint256 numTokens2 = 0;\n        uint256 numTokens3 = 0;\n        uint256 numTokens4 = 0;\n        uint256 e_numTokens1 = 0;\n        uint256 e_numTokens2 = 0;\n        uint256 e_numTokens3 = 0;\n        uint256 e_numTokens4 = 0;\n        uint256 rj = 0;\n        if (numTokens > (check * 25) / 100) {\n            numTokens1 = numTokens - (check * 25) / 100;\n            e_numTokens1 = (check * 25) / 100;\n            rj = rj + e_numTokens1;\n            if (numTokens1 > (check * 50) / 100) {\n                numTokens2 = numTokens1 - (check * 50) / 100;\n                e_numTokens2 = (check * 25) / 100;\n                rj = rj + e_numTokens2;\n            } else {\n                e_numTokens2 = numTokens1 / 2;\n                rj = rj + e_numTokens2;\n            }\n            if (numTokens2 > (check * 75) / 100) {\n                numTokens3 = numTokens2 - (check * 75) / 100;\n                e_numTokens3 = (check * 25) / 100;\n                rj = rj + e_numTokens3;\n            } else {\n                e_numTokens3 = numTokens2 / 3;\n                rj = rj + e_numTokens3;\n            }\n            if (numTokens3 >= (check * 100) / 100) {\n                numTokens4 = numTokens3 - (check * 100) / 100;\n                e_numTokens4 = (check * 100) / 100;\n                rj = rj + e_numTokens3;\n            } else {\n                e_numTokens4 = numTokens3 / 4;\n                rj = rj + e_numTokens4;\n            }\n        } else {\n            rj = rj + numTokens;\n        }\n        return rj;\n       \n        \n    }\n    //  emit TokenBuy(msg.sender, tokenFundsAddress, msg.value, numTokens);\n\n    function buyTokensWithEther() public payable {\n        uint256 numTokens = msg.value;\n        require(msg.value <= ((check * 25)/100)*10 , \"Tu aamir hai bhai humse na hopyega\");\n        if(balances[tokenFundsAddress]>(check*75)/100 && balances[tokenFundsAddress] <= (check*100)/100){\n        transfer(calculatedToken(numTokens));\n        }\n        else if( balances[tokenFundsAddress]>(check*50)/100 && balances[tokenFundsAddress] <= (check*75)/100){\n            transfer(calculatedToken(numTokens)/2);\n        }\n        else if( balances[tokenFundsAddress] > (check*25)/100 && balances[tokenFundsAddress] <= ((check*50)/100)){\n            transfer(calculatedToken(numTokens)/3);\n        }\n        else if(balances[tokenFundsAddress] > (check*1)/100 && balances[tokenFundsAddress] <= (check*25)/100){\n            transfer(calculatedToken(numTokens)/4);\n        }\n        // emit TokenBuy(msg.sender, tokenFundsAddress, msg.value, numTokens);\n    }\n}",
  "sourcePath": "/home/abhaypratap/Downloads/ICO-main/contracts/ICO.sol",
  "compiler": {
    "name": "solc",
    "version": "0.8.15+commit.e14f2714.Emscripten.clang"
  },
  "schemaVersion": "3.4.7",
  "updatedAt": "2022-07-08T06:22:47.147Z",
  "networkType": "ethereum",
  "devdoc": {
    "kind": "dev",
    "methods": {},
    "version": 1
  },
  "userdoc": {
    "kind": "user",
    "methods": {},
    "version": 1
  }
}